:020000040800F2
:100000004006002005010008531E0008711B00086F
:10001000511E0008D706000829250008000000002E
:10002000000000000000000000000000571E000853
:100030000F07000800000000551E0008A51F00085B
:100040001F0100081F0100081F0100081F01000810
:100050001F0100081F0100081F0100081F01000800
:100060001F0100081F0100081F0100081F010008F0
:100070001F0100081F0100081F0100081F010008E0
:10008000D90600081F0100081F0100081F01000811
:100090001F0100081F0100081F0100081F010008C0
:1000A0001F010008052000081F0100081F010008AB
:1000B0001F0100081F0100081F0100081F010008A0
:1000C0001F0100081F0100081F0100081F01000890
:1000D0001F0100081F010008D12400081F010008AB
:1000E0001F0100081F0100081F010008DFF810D0E1
:1000F00000F0BEFA004800477D2E0008AFF30080F4
:10010000400600200648804706480047FEE7FEE715
:10011000FEE7FEE7FEE7FEE7FEE7FEE7FEE7FEE7B7
:1001200001200008ED000008202A04DB203A21FA13
:1001300002F00021704721FA02F3D040C2F1200200
:100140009140084319467047D2B201E000F8012BF4
:10015000491EFBD270470022F6E710B513460A4647
:1001600004461946FFF7F0FF204610BD2DE9F04D7B
:1001700081EA030404F0004B21F0004514464FF0DF
:10018000000A23F0004150EA050220D054EA01029F
:100190001DD0C5F30A570246C5F31303C1F313007C
:1001A000C1F30A5640F4801543F48013A7EB060808
:1001B000101BD64608F2FD3873EB050002D308F198
:1001C000010801E092185B41B8F1000F03DA00204A
:1001D0000146BDE8F08D00204FF4801106468446AC
:1001E0000EE0171B73EB050705D3121B63EB05032A
:1001F00006434CEA010C49084FEA300092185B4173
:1002000050EA0107EDD152EA030012D082EA04005D
:1002100083EA0501084305D0101BAB4106D2012239
:10022000002306E000224FF0004302E06FF00102DD
:1002300053101AEB06004CEB085110EB0A0041EB8F
:100240000B01BDE8F04D00F06CB80EB540F2334143
:1002500002910021CDE900110A460B4600F070F82A
:1002600003B000BD30B5041E71F1000404DB4FF093
:100270000044404264EB0101141E73F1000405DBED
:100280001C464FF00043524263EB04038B4208BF0D
:10029000824230BD30B50B460146002020220124A9
:1002A00009E021FA02F59D4205D303FA02F5491B44
:1002B00004FA02F52844151EA2F10102F1DC30BD5A
:1002C0002DE9F05F0546002092469B46884606468B
:1002D000814640241BE02846414647462246FFF718
:1002E00023FF53465A46C01A914110D3114618466F
:1002F000224600F0CFF92D1A67EB01084F4622463F
:100300000120002100F0C6F917EB00094E41201E24
:10031000A4F10104DFDC484631462A464346BDE8E5
:10032000F09F10B5141E73F1000408DA401C41F16F
:10033000000192185B411A4301D120F0010010BD69
:100340002DE9F04D92469B4611B1B1FA81F202E0DF
:10035000B0FA80F22032904600F09CF904460F4635
:1003600040EA0A0041EA0B0153465A46084313D0BB
:10037000114653EA010019D0C8F140025046FFF778
:10038000D3FE05460E4650465946424600F082F9D5
:10039000084305D0012004E020463946BDE8F08D31
:1003A0000020054346EAE0762C4337430A9863056C
:1003B000E40AA0EB08000022FD0A44EA47540A3090
:1003C00002D500200146E9E7010510196941DDE980
:1003D000084500196941BDE8F04DA2E72DE9FE4F3F
:1003E000804681EA0300C00F0C46009021F00041D6
:1003F00023F00045B8EB0200A94105D24046214652
:1004000090461C460B46024623F00040104347D05E
:10041000270DC7F30A00C3F30A510290401A019056
:1004200040286BDAC3F3130040F4801B0098924617
:1004300020B10023D2EB030A63EB0B0B0198594662
:10044000C0F14002504600F025F906460D465046E0
:100450005946019A00F02DF910EB08006141002483
:1004600087EA115284EAE7731A4340D0009A62B3D4
:10047000019A012A4FEA075215DC001B61EB0201C9
:100480004FF0004202EA0752CDE90042001C41F55C
:10049000801132462B46FFF753FF03B0BDE8F08FC3
:1004A00040462146F9E7001B61EB0201001C41F5C3
:1004B000801300185B412018A2F5001747EB0301D9
:1004C00040EAD570B6196D4111E06D084FEA360665
:1004D00045EAC0754FEA0752001B61EB0201001CA0
:1004E00041F5801149084FEA300000195141324668
:1004F0002B4603B0BDE8F04FFFF713BF0098012271
:1005000040000023D0EB020263EBE0730098214629
:100510004FEAE074B8EB000061EB0401E9E783F017
:1005200000435BE781F0004158E72DE9FE4F81EA87
:10053000030404F0004421F0004100944FF0000B4C
:1005400023F0004350EA01045ED052EA03045BD07A
:10055000C3F30A54C1F30A552C44A4F2F3340194B2
:10056000A0FB0254C1F3130141F48011C3F3130340
:1005700043F4801301FB024400FB034E840A970AF4
:1005800044EA815447EA8357A4FB076802958D0A21
:1005900005FB07854FEA932C04FB0C542705029DAD
:1005A0004FEA065847EA1637B5EB08056EEB070C1D
:1005B000870E920E47EA811742EA8312A7FB0201D7
:1005C000B6EB0B0164EB00042B0D43EA0C335E1811
:1005D00044EB1C50DA465146E7FB0201C5F3130415
:1005E0004FEA0B3343EA14534FEA0432019C43EAC7
:1005F0000603A4F10C040294009CCDE900B4FFF7BB
:100600009FFE03B0BDE8F08F00200146F9E7C1F37B
:100610000A52C1F3130140F2FF3341F480119A42B0
:1006200002DA00200146704740F233439A42A2F2B8
:10063000334202DC5242FFF777BD00F02BB80000D6
:1006400030B5041E71F1000404DB4FF00044404259
:1006500064EB0101141E73F1000405DB1C464FF02E
:100660000043524263EB0403994208BF904230BDFD
:10067000064C074D06E0E06840F0010394E80700EF
:1006800098471034AC42F6D3FFF734FD5C310008D4
:100690007C310008202A04DB203A00FA02F1002015
:1006A00070479140C2F1200320FA03F319439040B0
:1006B0007047202A06DBCB17203A41FA02F043EAC2
:1006C000E07306E041FA02F3D040C2F1200291400B
:1006D000084319467047FEE7014800F099B800004A
:1006E000E401002030B590F840500124AC40C56BC7
:1006F0006C60046863604368102B036803D09960E2
:100700000068C26030BD9A600068C16030BD70474B
:1007100072B602A001F02EFFFEE700004572726F74
:10072000725F48616E646C65720D0A0010B590F8D6
:1007300021100022022905D00421816380F82020A5
:10074000012010BD01680B6823F00E030B600168E7
:100750000B6823F001030B6090F84030C46B01215B
:1007600001FA03F3636080F8211080F8202010461E
:1007700010BD000010B590F821100024022903D00C
:100780000421816301243DE001680A6822F00E0221
:100790000A6001680A6822F001020A601A4A0168C8
:1007A000914201D1012121E0174A1432914201D135
:1007B00010211BE0144A2832914201D1891515E01D
:1007C000114A3C32914201D189140FE00E4A503255
:1007D000914202D14FF4803108E00B4A64329142D9
:1007E00002D14FF4801101E04FF08071064A083ABF
:1007F0005160012180F82110002180F82010416B08
:1008000001B18847204610BD08000240806B704748
:100810002DE9F05FC16B0C6801680B68D0F840C02F
:10082000042202FA0CF2494DDFF824A1494E4A4F46
:10083000DFF828B1DFF828E122422CD05A072AD568
:100840000A68920603D40A6822F004020A6001686A
:10085000A94201D1042219E0514501D1402215E0FD
:10086000B14202D14FF4806210E0B94202D14FF49C
:1008700080420BE0594502D14FF4802206E07145D9
:1008800002D14FF4800201E04FF080622F49083915
:100890004A60C16A3BE04FF0020808FA0CF818EA17
:1008A000040F4FF000094FF0010235D05FEA837862
:1008B00032D50B689B0605D40B6823F00A030B6046
:1008C00080F821200168A94201D1022219E0514596
:1008D00001D1202215E0B14202D14FF4007210E0A4
:1008E000B94202D14FF400520BE0594502D14FF406
:1008F000003206E0714502D14FF4001201E04FF0E2
:100900000072124908394A6080F82090816A0029F3
:100910001AD0BDE8F05F0847082505FA0CF5254216
:1009200012D01B0710D50B6823F00E030B6090F854
:100930004010C36B02FA01F15960826380F82120F4
:1009400080F82090016BE2E7BDE8F09F08000240CC
:100950001C000240300002404400024058000240A7
:100960006C00024030B528B308C81349142219445A
:10097000B1FBF2F18900C163104981630221417723
:100980001A6843F6F0718A43D0E900142143D0E994
:1009900002452C432143046921434469214384696E
:1009A00021431143196000214163012242770177FD
:1009B000084630BD012030BDF8FFFDBF00000240F9
:1009C00070B5044690F82000002501280CD00120C5
:1009D00084F8200094F821600020012E06D084F8CD
:1009E00020000225284670BD022070BD022684F832
:1009F0002160A0632068066826F001060660204694
:100A0000FFF770FEE06A00282068016802D041F01C
:100A10000E0106E021F0040101602068016841F048
:100A20000A0101602068016841F001010160D9E715
:100A300070B5044600F004F90546601C02D0044875
:100A40000078044400F0FCF8401BA042FAD370BDCB
:100A5000040000202DE9F84FDFF8B8910024A9F137
:100A6000040B23460F2709F1040AABF1040EC9E079
:100A70000125A5402A40AA427DD1674ED1F804C085
:100A8000ACEB0608B44532D014DCBCF1030F3AD00D
:100A900009DCBCF1000F2AD0BCF1010F1CD0BCF165
:100AA000020F31D11DE0BCF1110F17D0BCF1120FB4
:100AB0002AD119E0B8F5881F19D006DCB8F5803FB7
:100AC00015D0B8F5801F1FD111E0B8F5001F0ED06A
:100AD000B8F5041F18D10AE0CB6815E0CB681B1DE0
:100AE00012E0CB6808330FE0CB680C330CE08B6866
:100AF0002BB1012B4FF0080303D0456104E0042320
:100B000002E0056100E00023FF2A01D8064601E06B
:100B100000F104064FEA840501D9A5F12005D6F8B5
:100B2000008007FA05FC28EA0C0803FA05F548EAF4
:100B30000508C6F800804D68ED0062D5374DAE69F6
:100B400046F00106AE61AD6924F0030605F001052B
:100B50000095334D06EB050CDCF80850A607360F60
:100B600007FA06F825EA0805DFF8B880404503D102
:100B70004FF0000817E044E0DFF8AC80404502D1B8
:100B80004FF001080FE0DFF8A480404502D14FF09C
:100B9000020808E0DFF89880404502D14FF00308D2
:100BA00001E04FF0040808FA06F848EA0508CCF816
:100BB00008804D68D9F80060ED024D4601D5164316
:100BC00000E096432E604D68DAF80060AD025546AD
:100BD00001D5164300E096432E604D68DBF80060B7
:100BE000AD035D4601D5164300E096432E604D6887
:100BF000DEF80060ED03754601D5164300E096432C
:100C00002E60641C0D682A46E5407FF431AFBDE8D4
:100C1000F88F00000804014000001110001002408D
:100C20000000014000080140000C0140001001409C
:100C3000001401400AB1016170470904FBE700009C
:100C40000148806870470000040000200248816865
:100C5000027811448160704704000020074810B5F5
:100C6000016841F010010160032000F079F80020D4
:100C700000F006F800F024F8002010BD002002402B
:100C800070B50D4D04464FF47A712878B1FBF0F041
:100C90000A490968B1FBF0F000F0E0FA48B9102CFD
:100CA00007D200222146501E00F03AF800206C6066
:100CB00070BD012070BD0000040000201000002065
:100CC0000E4808B5816941F001018161816901F037
:100CD00001010091C16941F08051C161C06900F01A
:100CE00080500090052000F03BF80548416821F055
:100CF000E06141F00071416008BD00000010024059
:100D000000000140002809DB00F01F020121914092
:100D10004009800000F1E020C0F800117047000099
:100D2000F0B40E4B1B680C46C3F30223C3F1070556
:100D3000042D00D90425191D072901D2002300E044
:100D4000DB1E012606FA05F1491E214099409E400E
:100D5000761E16403143F0BC01F01CBC0CED00E0E7
:100D6000064900F0070208684FF6FF03184040EA02
:100D70000220034A10430860704700000CED00E0B9
:100D80000000FA052DE9F0470F46050061D0434EFB
:100D9000306800F00700B84209D2306820F0070040
:100DA00038433060306800F00700B84251D12868FD
:100DB0003B4C810712D5400703D5606840F4E060E2
:100DC00060602878000703D5606840F46050606078
:100DD0006068A96820F0F000084360602878C007C8
:100DE00028D06868012810D02168022810D089070F
:100DF00000292EDA616821F0030101436160FFF7E9
:100E00001FFF804641F288390DE021688903EFE732
:100E10008901EDE7FFF714FFA0EB0801494502D96E
:100E20000320BDE8F0876068696800F00C00B0EB53
:100E3000810FEFD1306800F00700B8420BD930685D
:100E400020F0070038433060306800F00700B842F7
:100E500001D00120E5E72878400705D56068E968FA
:100E600020F4E060084360602878000706D56068D9
:100E7000296920F4605040EAC100606000F038F851
:100E80006168084AC1F30311515CC8400649086013
:100E900006480068FFF7F4FE0020C2E70020024089
:100EA00000100240422F000810000020080000201F
:100EB0000448054900684968044AC1F30221515CAD
:100EC000C84070471000002000100240522F000858
:100ED0000448054900684968044AC1F3C221515CCD
:100EE000C84070471000002000100240522F000838
:100EF0000E4A51680E4801F00C03042B11D0082B48
:100F00000FD10C48C1F38343C903C05C0AD55168B3
:100F1000084AC1F34041921E515C054A5043B0FB60
:100F2000F1F0704704494843704700000010024048
:100F300000127A00322F000800093D002DE9F84F19
:100F4000040070D02078C04DC00749D06868C0F355
:100F50008100012807D06868C0F38100022809D108
:100F60006868C00306D52868800339D56068002802
:100F7000E7D035E06068B0F5803F0BD010B1B0F538
:100F8000A02F11D0286820F480302860286820F431
:100F9000802002E0286840F480302860606890B1CA
:100FA000FFF74EFE06460AE0286840F480202860DD
:100FB000F0E700BFFFF744FE801B642873D8286861
:100FC0008003F7D50CE0FFF73BFE064605E000BFC7
:100FD000FFF736FE801B6428F0D828688003F7D41A
:100FE00020789A4E80074FF001094FF0000839D55C
:100FF000686810F00C0F07D06868C0F38100022801
:1010000009D16868C00306D42868800714D5206910
:10101000012808D110E02069B0B1C6F80090FFF7B0
:101020000FFE074605E00AE1FFF70AFEC01B022893
:10103000C4D828688007F7D52868616920F0F800CF
:1010400040EAC10028600DE0C6F80080FFF7F8FD17
:10105000074604E0FFF7F4FDC01B022823D82868E8
:101060008007F7D4207800072CD57948A169D9B139
:10107000C0F80090FFF7E4FD074604E0FFF7E0FD4D
:10108000C01B02280FD8686A8007F7D571484FF453
:10109000FA510068B0FBF1F0009000BF0098411ECB
:1010A0000091FAD20EE080E0C0F80080FFF7C8FDA2
:1010B000074604E0FFF7C4FDC01B022875D8686A24
:1010C0008007F7D42078400760D5E8690027C00082
:1010D00008D4E86940F08050E861E869012700F031
:1010E000805000905C480168C90513D401688346AC
:1010F00041F480710160FFF7A3FD824606E000BF66
:10110000FFF79EFDA0EB0A0064284ED8DBF8000034
:10111000C005F5D5E06801280AD008B1052813D02C
:10112000286A20F001002862286A20F0040002E00A
:10113000286A40F001002862E06841F2883B98B1DB
:10114000FFF77EFD82460BE0286A40F0040028622B
:10115000EEE700BFFFF774FDA0EB0A0159455AD82E
:10116000286A8007F6D50CE0FFF76AFD824605E0A5
:10117000FFF766FDA0EB0A0159454CD8286A8007A5
:10118000F6D41FB1E86920F08050E861E06988B3C7
:101190006968C1F38101022944D00228C6F8608041
:1011A00004D0FFF74DFD044638E034E0FFF748FD7A
:1011B000074604E0FFF744FDC01B02282BD828682F
:1011C0008001F7D4206AB0F5803F05D16868A16836
:1011D00020F4003008436860D4E9080108436968D6
:1011E00021F4741108436860C6F86090FFF728FD89
:1011F000044606E025E000BFFFF722FD001B0228A1
:1012000009D828688001F7D51BE000BFFFF718FD5B
:10121000001B022802D90320BDE8F88F286880014E
:10122000F4D40EE00128F7D06868226A00F4803117
:10123000914204D1616A00F47010884201D001200B
:10124000EAE70020E8E70000001002400000424208
:1012500080044242100000200070004010B5401E83
:10126000B0F1807F01D3012010BD4FF0E024606118
:101270000F21601701F08EF90020A0610720206186
:10128000002010BD7047704770B590F83C20012ACF
:1012900026D0012480F83C40022280F83D200368DB
:1012A0005A689D6822F070060A6832435A600D4BF6
:1012B00002689A4208D0B2F1804F05D00A4B9A4298
:1012C00002D00A4B9A4204D1496825F080031943A1
:1012D000916080F83D40002180F83C10084670BDC8
:1012E000022070BD002C01400004004000080040B6
:1012F00010B5040003D094F83D0010B107E00120C0
:1013000010BD002084F83C00204600F01FF80220A9
:1013100084F83D00211D206800F07AFE012084F849
:10132000460084F83E0084F83F0084F8400084F8CA
:10133000410084F8420084F8430084F8440084F8B3
:10134000450084F83D00002010BD000008B500688D
:101350000B49884212D10B48816941F400618161D7
:101360008069002200F40060009011461920FFF708
:10137000D7FCBDE808401920FFF7C4BC08BD000039
:10138000002C01400010024070B5044690F83C006B
:101390000025012817D0012684F83C60022084F83B
:1013A0003D002068826822F0770222F47F4282604A
:1013B0000868502838D00DDC20284FD005DC90B3C9
:1013C000102811D14AE0022070BD302846D04028B4
:1013D0000AD13BE060282FD070280DD0B0F5805F97
:1013E00003D0B0F5005F12D0012584F83D600020E5
:1013F00084F83C00284670BDCB68D1E90121206803
:1014000000F03CFE2068816841F0770109E0CB687C
:10141000D1E90121206800F031FE2068816841F4A3
:1014200080418160E1E719E0CA684968206800F0FE
:1014300037FE5021206806E0CA684968206800F03D
:1014400040FE6021206800F023FECEE7CA684968AC
:10145000206800F025FE40212068F4E7226801465C
:101460001046F0E7704770B50446006801694FF018
:101470000005C943890715D4C168C943890711D438
:10148000E91E0161012020772068806980072046DD
:1014900002D0FFF7E7FF04E000F098F8204600F0E4
:1014A00096F8257720680169C943490717D4C168B0
:1014B000C943490713D46FF004010161022020776A
:1014C0002068806910F4407F204602D0FFF7CAFFF1
:1014D00004E000F07BF8204600F079F825772068DA
:1014E0000169C943090716D4C168C943090712D461
:1014F0006FF008010161042020772068C06980072F
:10150000204602D0FFF7AEFF04E000F05FF820466F
:1015100000F05DF8257720680169C943C90617D432
:10152000C168C943C90613D46FF0100101610820D6
:1015300020772068C06910F4407F204602D0FFF772
:1015400091FF04E000F042F8204600F040F82577D3
:1015500020680169C943C90708D1C168C943C907DF
:1015600004D1891E0161204600F032F8206801692B
:10157000C943090609D4C168C943090605D46FF0F7
:10158000800101612046FFF77DFE20680169C943A3
:10159000490609D4C168C943490605D46FF0400122
:1015A0000161204600F028F820680169C9438906D6
:1015B0000BD4C168C943890607D46FF020010161CB
:1015C0002046BDE87040FFF75EBE70BD70477047B3
:1015D0000068074988420AD106484189491C89B2F6
:1015E00041811E2903D301210170002141817047EF
:1015F000002C0140140000207047704770B504466D
:1016000020680C3050E8001F21F4907140E800126F
:10161000002AF5D12068143050E8001F21F00101A4
:1016200040E80012002AF5D1206B012809D120687A
:101630000C3050E8001F21F0100140E80012002A91
:10164000F5D1206840694FF00005400615D52068A7
:10165000143050E8001F21F0400140E80012002A39
:10166000F5D1E06B48B14563E06BFFF75FF820B15F
:10167000E06BFFF7CBF8202806D0E585202084F822
:1016800042002563002070BD10206064032070BDFF
:1016900070470000F8B5016804460868CA684B69DD
:1016A00010F00F0F4FF0000559D003F0010602F4BF
:1016B0009077374365D0C10705D0D10503D5616C5C
:1016C00041F001016164410705D5D90703D0616C80
:1016D00041F002016164810705D5D90703D0616C2F
:1016E00041F004016164010707D502F02001314394
:1016F00003D0616C41F008016164616C00293AD04B
:10170000800604D5900602D5204600F0A0FD206892
:101710004069616CC0F38010090700D460B32046B3
:1017200000F060FD20684069400621D52068143033
:1017300050E8001F21F0400140E80012002AF5D1D6
:10174000E06BA8B16D494163E06BFFF713F8002827
:1017500011D0E06B416B01B0BDE8F0400847830653
:101760000FD593060DD52046BDE8F84000F06FBDBB
:101770002046FFF78DFFF8BD2046FFF789FF65641F
:10178000F8BD266B2023012E7CD1C6067AD5D6065D
:1017900078D508684868009048694FF0020640060E
:1017A00040D5E16B086840680004000CE8D0A28DC9
:1017B0008242E5D9E085886920282DD020680C3048
:1017C00050E8001F21F4807140E80012002AF5D192
:1017D0002068143050E8001F21F0010140E8001299
:1017E000002AF5D12068143050E8001F21F0400194
:1017F00040E80012002AF5D184F8423025632068C1
:101800000C3050E8001F21F0100140E80012002ABF
:10181000F5D1E06BFEF78AFF6663A08DE18D401A7B
:1018200081B22AE0A08DE18D401A81B2E08D0028BE
:10183000A6D00029A4D022680C3252E8000F20F470
:10184000907042E80007002FF5D12068143050E86E
:10185000002F22F0010240E80027002FF5D184F884
:101860004230256320680C3050E8002F22F010022F
:1018700040E80023002BF5D166632046FFF7BDFE4C
:10188000F8BDFFE705062BD5150629D594F84100CC
:101890002128F5D1A068B0F5805F01D12069B0B1F1
:1018A000206A411C2162216800784860E08C401E5B
:1018B0000004000CE084E3D12068C16821F08001BD
:1018C000C1602068C16841F04001C160D8E7206A6A
:1018D0000088C0F308004860206A801C2062E5E7A9
:1018E0004006CDD55006CBD5CA68204622F040022E
:1018F000CA6084F8413000F03AF9C1E7E7200008F7
:1019000070B5040004D094F84100002510B106E041
:10191000012070BD84F84050204600F023F82420B8
:1019200084F841002068C16821F40051C16020465C
:1019300000F0EEFC2068016921F49041016120680B
:10194000416921F02A0141612068C16841F40051D8
:10195000C1606564202084F8410084F8420065631A
:10196000002070BDF0B585B000240094019402946D
:101970000394054603684848DFF818C10221032292
:10198000464E071563451DD1836943F48043836147
:10199000836903F480430493836943F00403836100
:1019A0008069039200F0040004900802CDE9000170
:1019B00069463046FFF74EF8CDE900746946304677
:1019C000029463E0DFF8D8C063453ED1C36943F4B5
:1019D0000033C361C36903F400330493836943F0A4
:1019E000040383618069039200F0040004900420E2
:1019F000CDE9000169463046FFF72CF80820CDE913
:101A00000004694630460294FFF724F8264E254824
:101A1000C6E900048020C6E9024034614FF440501A
:101A20007461C6E906403046FEF79CFF08B1FEF738
:101A30006FFEEE630022012126207562FFF770F928
:101A40002620FFF75FF905B0F0BD184DAB42FAD183
:101A5000C36943F48023C361C36903F480230493FF
:101A6000836943F0080383618069CDE9007100F068
:101A70000800CDE903200E4D69462846FEF7EAFF2F
:101A8000E814CDE90004694628460294FEF7E2FF17
:101A9000D9E7000000380140001002400008014072
:101AA000004400406C000240E40100200048004077
:101AB000000C014090F84230202B01D002207047EA
:101AC00021B11AB10023036300F07EBC01207047EE
:101AD000704770472DE9F843044690F841001F46CF
:101AE00016460D46202802D00220BDE8F8837DB1BD
:101AF00076B100206064212084F84100FFF7A0F84F
:101B0000A6848046E684A068B0F5805F02D003E03A
:101B10000120EAE7206910B12E4600250EE00026DC
:101B20000CE08021204600F097FCA0B9AEB116F879
:101B3000010B21684860E08C401EE084E08C434645
:101B40004FF0000200970028EBD14FF040012046F3
:101B500000F082FC30B10320C7E735F8020BC0F378
:101B60000800E6E7202084F841000020BDE7704728
:101B7000FEE700002DE9F0478946DDE908780321FA
:101B800080F8009041700446100AA070E270180AB4
:101B900020711D464FF0FF3663710621204601F08B
:101BA000B1F9A071000AE071D4F89820082120460C
:101BB0009047DFF880A009E09AF8000001280AD0D9
:101BC0007F1ED4F88C10BFB201208847002FF3D1BC
:101BD0003046BDE8F0872178002749451AD1607862
:101BE000032817D1B4F8801020466218891E32F8F5
:101BF000026C89B201F086F986420BD1E01C04E048
:101C000030F8021B49BA28F8021B6D1EADB2F7D29C
:101C1000002604E008A000F0ADFC6FF001068AF891
:101C20000070A4F88070802221460648FFF742FF2A
:101C3000CEE7000000000020CAFDBEDDB4EDCEF30B
:101C40000D0A000054010020094808B5416941F01F
:101C5000010141614069002200F00100009011463D
:101C60001020FFF75DF8BDE808401020FFF74AB8E4
:101C7000001002402DE9F04186B000242048009475
:101C8000019402940394816941F02001816181698A
:101C900001F020010491816941F0040181618169B1
:101CA00001F004010491816941F0080181618069BA
:101CB000144F00F008004FF4887504900022294664
:101CC0003846FEF7B7FFDFF8408000220321404688
:101CD000FEF7B0FF0095022601250396CDE90154D9
:101CE00069463846FEF7B6FE0320CDE90005CDE98A
:101CF000024669464046FEF7ADFE06B0BDE8F081FB
:101D00000010024000080140000C014030B587B0CF
:101D100000251D4C009501950295039504951948E1
:101D20000595206041F61F40C4E9010540F2E73007
:101D3000C4E9030565612046A561FFF7D9FA08B13A
:101D4000FEF7E6FC4FF48050009069460E48FFF71E
:101D50001BFB08B1FEF7DCFC049504A90A480595B5
:101D6000FFF792FA08B1FEF7D3FC2068016841F052
:101D7000010101602068C16841F00101C16007B044
:101D800030BD0000002C0140C40000200C4810B5FC
:101D90000A4901604FF4E1314160002181600C2269
:101DA000C160C0E904128161C161FFF7A9FD00288B
:101DB00003D0BDE81040FEF7ABBC10BD00380140B9
:101DC0000C01002038B5124C10480C2120604FF453
:101DD000965060600020A060E060C4E90401A0614A
:101DE000E0612046FFF78CFD08B1FEF791FC20680A
:101DF000016841680091C16841F01001C160BDE80F
:101E00003840802203490248FFF754BE0044004096
:101E100054010020240000200C4810B50A4901603C
:101E20004FF416514160002181600C22C160C0E96D
:101E300004128161C161FFF763FD002803D0BDE892
:101E40001040FEF765BC10BD004800409C0100201A
:101E5000FEE7FEE7704770472DE9F04F344C87B03E
:101E60002178012961D1334D4FF4FA71CDE9001584
:101E700003460022012104F11000FFF77BFEE06021
:101E8000002801DA2CA100E02DA12EA000F072FBA9
:101E9000E068DFF8C8B000282FDB264800F046FBDA
:101EA000002020702888E0806E8881466680A8889F
:101EB00020818246E888A080FEF7C7F900225B46B1
:101EC000FEF754F9054688463046FEF7BEF9002273
:101ED0005B46FEF74BF906460F464846FEF7B5F956
:101EE00000225B46FEF742F9CDE904588DE8C004B4
:101EF00002460B461AA000F03DFBE088FEF7A5F96C
:101F000000225C465B46FEF731F900222346FEF7CD
:101F1000A9F901D8012200E0002207B04FF4807136
:101F2000BDE8F04F1E48FEF785BE07B0BDE8F08F54
:101F300014000020280200206661696C65640000BE
:101F40006F6B0000207265616420686F6C642072A2
:101F50006567732025732E200D0A000000002440C1
:101F6000CBAEB7D6203D20252E31662525202CCEA0
:101F7000C2B6C8203D20252E3266A1E62CB5E7B5B5
:101F8000BCC2CA203D2025642075732F636D2C5080
:101F900048D6B5203D20252E3166200D0A000000D0
:101FA00000080140FEF752BE30B58FB028216846C8
:101FB000FEF7D1F814210AA8FEF7CDF80121080494
:101FC000CDE900100024029402250491CDE90750C8
:101FD0004FF4E01009906846FEF7B0FF60B90F209B
:101FE000CDE90A056802CDE90C4002210AA80E9449
:101FF000FEF7C8FE002801D0FEF78AFB0FB030BD07
:10200000704700000148FFF72EBA0000C40000200E
:10201000F0B50268164B174C174D4FF080479842A9
:1020200005D0B84203D0A04201D0A84203D122F08B
:1020300070064A683243984205D0B84203D0A042A5
:1020400001D0A84203D122F44074CA6822434C69EB
:1020500022F08002224302608A68C2620A688262B9
:10206000984201D10969016301214161F0BD00007D
:10207000002C0140000400400008004010B58468B6
:1020800042EA032224F47F440A432243826010BDC3
:10209000826822F070020A4342F0070181607047B3
:1020A00010B5036A046A24F001040462846924F010
:1020B000F00444EA021423F00A020A438461026233
:1020C00010BD10B5036A046A24F010040462846928
:1020D00023F0A00324F4704444EA023243EA0111DD
:1020E0008261016210BD10B5406A0021C185C184C2
:1020F000FFF7CEFA10BD70B5446A2068406994F8C5
:102100004110C0F3C0100025212904D118B1E58485
:10211000204600F08EF82068406994F84210C0F321
:102120008010222904D118B1E585204600F05AF824
:10213000606C40F0100060642046FFF7A9FA70BDA3
:1021400010B50146406A096809684FF00002890627
:102150002ED4C28501680C3151E8003F23F480730E
:1021600041E80034002CF5D10168143151E8003FFA
:1021700023F0010341E80034002CF5D1016814314B
:1021800051E8003F23F0400341E80034002CF5D132
:10219000202180F84210016B012909D101680C311E
:1021A00051E8003F23F0100341E80034002CF5D142
:1021B0004263016B012902D0FFF78AFC10BD818DBB
:1021C000FFF71BFA10BD10B5406A01214163016B96
:1021D000012902D0FFF77DFC10BD818D4908FFF772
:1021E0000CFA10BD01680C3151E8002F22F49072F6
:1021F00041E80023002BF5D10168143151E8002F8C
:1022000022F0010241E80023002BF5D1016B0129E6
:1022100009D101680C3151E8002F22F0100241E889
:102220000023002BF5D1202180F84210002101630A
:10223000704701680C3151E8002F22F0C00241E8DC
:102240000023002BF5D1202180F84110704708B5FC
:1022500090F84210222901D0022008BD82684FF474
:1022600080539A4201D1016921B1816A9A421BD0FF
:102270004AB10AE00268816A5268C2F308020A8021
:10228000816A891C08E0026972B10268526802F032
:102290007F020A70816A491C8162C18D491E09044E
:1022A000090CC18503D01BE002685268F1E70168A0
:1022B000CA6822F02002CA600168CA6822F48072EB
:1022C000CA6001684A6922F001024A61202180F84F
:1022D000421000214163026B012A03D0FFF7F8FB93
:1022E000002008BD016301680C3151E8002F22F085
:1022F000100241E80023002BF5D101680A68D206DC
:1023000002D50A6849680091818DFFF776F9E7E701
:1023100070B5044600680169E26821F44051114338
:1023200001612169A0680843616908432168CA689E
:1023300041F20C639A430243CA6020684169A26972
:1023400021F44071114341611E492068884202D145
:10235000FEF7BEFD01E0FEF7ABFD00EBC00101EBB7
:102360000012606864218000B2FBF0F3B3FBF1F36C
:102370006FF018067343B2FBF0F5B2FBF0F605EB15
:102380008305322303EB0515B5FBF1F5B6FBF1F63A
:1023900005F0F00505EB0615B2FBF0F6B2FBF0F028
:1023A000B0FBF1F06FF01802504306EB800003EB36
:1023B0000010B0FBF1F0216800F00F0028448860A5
:1023C00070BD00000038014038B581620446828546
:1023D000002013466064222284F84220E56B1B4AE9
:1023E000AA62E56B1A4AEA62E56B1A4A2A63E26B53
:1023F00050630A462168E06B091DFEF7E1FA206888
:10240000016840680090206948B120680C3050E8AD
:10241000001F41F4807140E80012002AF5D12068C5
:10242000143050E8001F41F0010140E80012002A7A
:10243000F5D12068143050E8001F41F0400140E819
:102440000012002AF5D1002038BD0000412100080B
:10245000C7210008F72000082DE9F04198461746EB
:102460000E460446069D27E0681C25D02DB1FEF7D8
:10247000E7FBA0EB0800A8421ED920680C3050E80A
:10248000001F21F4D07140E80012002AF5D1206825
:10249000143050E8001F21F0010140E80012002A2A
:1024A000F5D1202084F8410084F84200002084F80F
:1024B00040000320BDE8F0812068006836EA000093
:1024C00004D00020B842CFD00020F3E70120F9E784
:1024D000104808B500680168C943C90615D40168E9
:1024E000406800900C4800680B48001D00680948CF
:1024F000FFF784F8094800684068094A0121C0F1E3
:10250000800011700749A1F88000BDE8084001482B
:10251000FFF7C0B85401002000440040E40100204F
:102520000000002024000020FEE7000010B586B067
:10253000044614216846FDF70EFE00221146684647
:1025400034F811301B0A8354521C14F81130D2B2E3
:10255000491C8354521CC9B2D2B20429F0D301469B
:102560004FF6FF7308220248FFF7B4FA06B010BD19
:102570009C0100200FB4054B10B503A9044A029832
:1025800000F0EAF810BC5DF814FB0000652E0008AE
:10259000C00000200907090E002804DB00F1E0203C
:1025A00080F80014704700F00F0000F1E02080F880
:1025B000141D704702E008C8121F08C1002AFAD192
:1025C00070477047002001E001C1121F002AFBD1B3
:1025D000704700002DE9FF5F82B00021DDE9043083
:1025E000020DDDF840B0034318D044F61050A2F2BB
:1025F000FF3242431514119801281FD0A5EB0B00A0
:10260000401C5FEA000A4FF000064E4FDFF8389199
:10261000B046504615D5CAF1000413E011980124C4
:102620004AA3012801D16FEA0B010298119AC0E96F
:102630000031C0E9024206B0BDE8F09FCBF10000D6
:10264000DFE704460021404A491842EB0450CDE937
:10265000001012E0E00707D032463B4640464946AC
:10266000FDF763FF8046894632463B4610461946D1
:10267000FDF75BFF06460F466410002CEAD1DDE94A
:102680000401DDE90023BAF1000F06DAFDF74DFF82
:1026900042464B46FDF749FF05E0FDF767FD424620
:1026A0004B46FDF763FD04460E460022284BFDF71E
:1026B000C7FF03D84FF0FF30014607E00022254B4B
:1026C00020463146FDF78AFEFDF7A1FF102409E000
:1026D000002C0ADB0A220023FDF7F2FD039B3032B7
:1026E0001A55641E50EA0102F2D1641C039AC4F127
:1026F00011031444119A012A03D0012208430DD179
:102700000AE0084304D000204FF0110B119072E74B
:10271000A3EB0B056D1E0DE05B4504DD4FF00002E1
:1027200005F1010504E003DA4FF00002A5F101050F
:10273000002AECD002981199C0E90231C0E90045A5
:1027400079E70000000014400000F03F3000000076
:102750000000F0430000E03F2DE9FF4F95B09A469E
:10276000884606460025EEE1252877D10024274635
:10277000F94A0121039400E0044316F8013F203B8D
:1027800001FA03F01042F7D130782A2811D06FF007
:102790002F033078A0F13002092A16D8039A44F0AA
:1027A000020402EB820203EB42021044761C039007
:1027B000EFE758F8042B0392002A03DA504244F45E
:1027C0000054039044F00204761C30782E2816D171
:1027D00016F8010F44F004042A280DD06FF02F02E0
:1027E0003078A0F13003092B09D807EB870302EBFF
:1027F0004303C718761CF3E758F8047B761C30783F
:102800006C280FD006DC4C2817D068280DD06A2819
:1028100014D104E0742810D07A280FD10DE044F4CC
:1028200000140AE044F4801401E044F44014727887
:10283000824202D104F58014761C761C307866281A
:102840000BD013DC582877D009DC002875D0452838
:10285000F6D04628F4D047281AD193E118E063282F
:1028600035D0642879D0652812D18BE1702873D0D7
:1028700008DC6728F1D069286FD06E280DD06F284A
:1028800006D1ACE073282CD0752874D0782853D0AA
:102890005246179990476D1C54E1C4F30250022828
:1028A00009D003280DD0D8F8001004280DD00D60F1
:1028B00008F1040846E1D8F80010EA17C1E900520F
:1028C000F6E7D8F800100D80F2E70D70F0E718F881
:1028D000041B8DF8001000208DF80100EB4601204C
:1028E00003E058F804BB4FF0FF3061074FF00001E0
:1028F00002D40DE009F101018946B9420FDA8145A0
:10290000F8DB1BF809100029F4D108E009F10101F6
:1029100089468142FADB1BF809100029F6D1039899
:102920005346A0EB090721463846179A00F080FA73
:10293000284400EB090507E044E008E10DE01BF83E
:10294000010B524617999047B9F10109F7D2534646
:1029500021463846179AF2E039E00A21C4F30252C0
:102960004FF0000B0091022A06D058F8040BC11753
:10297000032A09D00AE023E008F1070020F007024B
:10298000F2E80201904605E000B2C117042A01D125
:1029900040B2C117002906DA0A460021404261EB25
:1029A00002012D2202E0220504D52B228DF80420FD
:1029B000012203E0E20701D02022F7E7914657E029
:1029C0000A2100E010214FF0000B00910BE01021D4
:1029D0004FF0000B44F004040827009103E00820A6
:1029E0004FF0000B0090C4F30252022A05D058F8B1
:1029F000040B0021032A08D008E008F1070020F0AA
:102A00000702F2E80201904603E080B2042A00D1F6
:102A1000C0B24FF0000922072AD53278702A07D0B9
:102A2000DDF800C08CF0100C5CEA0B0C05D00EE059
:102A300040228DF80420012208E050EA010306D06C
:102A400030238DF804308DF8052002229146009B3A
:102A500083F0080353EA0B030AD150EA010201D1C3
:102A6000620705D530228DF804204FF001097F1E42
:102A70003278582A04D039A20C920CAA02920BE0A8
:102A80003BA2F9E75B46009AFDF71AFC0C9B9B5CA6
:102A9000029A521E0292137050EA0102F2D1029879
:102AA00004A9081A00F1200B600702D524F4803431
:102AB00000E001275F4502DDA7EB0B0000E00020EE
:102AC00000EB0B01009003984944401A0390E00387
:102AD00006D453462146179A039800F0A9F90544F5
:102AE000002706E001A85246C05D179990476D1C6B
:102AF0007F1C4F45F6DBE0030CD553462146179A61
:102B0000039800F095F9054404E0302052461799E7
:102B100090476D1C0099481E00900029F5DC08E0E4
:102B20000298029952460078491C029117999047E1
:102B30006D1CBBF10001ABF1010BF1DC5BE100F0BE
:102B400065F90544761C307800287FF40DAE19B085
:102B50002846BDE8F08F00000928010030313233EB
:102B600034353637383961626364656600000000C9
:102B700030313233343536373839414243444546B3
:102B800000000000600700D4062708F1070020F0CD
:102B90000700F0E80223804603F0004C5FEA0C00D7
:102BA00001D097A009E0200501D596A005E0E00737
:102BB00001D095A001E0AFF24C001390307823F0E3
:102BC000004365280CD006DC452809D046281DD0D6
:102BD00047287FD13BE0662818D067287AD136E0B5
:102BE0000021112F01DB112000E0781CCDE900014C
:102BF00004A90CA8FFF7EEFCDDE90D010C9A4FF0DB
:102C0000000B07F10109109200914EE04FF00040D7
:102C10000097CDE9011004A90CA8FFF7DBFCDDE962
:102C20000D020C9B0F994FF0000B914610930092F0
:102C300011B9791C00EB0109B7EB090003D4C0F10D
:102C4000FF3B07F10109A9EB0700019042E0012FCA
:102C500000DA01270021112F01DD112000E03846A4
:102C6000CDE9000104A90CA8FFF7B4FCDDE90D01D2
:102C70000C9A00914FF0000BB946109221070FD427
:102C8000009A4A4503DA914601E0A9F10109B9F138
:102C9000010F05DD109AA9F10101515C3029F4D032
:102CA000B84202DA10F1040F03DA0121CDE9011074
:102CB00010E0002803DC8344A9EB000102E0411C82
:102CC000494500DD8946A0EB0B00401C01904FF008
:102CD00000400290200705D40198484502DB4FF0E0
:102CE000FF30019000208DF84B0002980DF14B074A
:102CF000B0F1004F25D002200C902B200D900298AF
:102D000000280CDA404202902D200D9007E00A21A5
:102D10000298FDF7BFFA3031029007F8011D0C99B7
:102D2000481E0C900029F2DC02980028EFD1791E91
:102D30000D980870307800F0200040F0450007F84A
:102D4000020D11A8C01BC01D02901398007800B19D
:102D5000012000EB0901019801EBE07102980144A8
:102D60000398401A401E0390E00306D453462146C0
:102D7000179A039800F05CF805441398007818B18E
:102D80005246179990476D1CE00323D553462146C0
:102D9000179A039800F04CF805441BE0BBF1000FB4
:102DA00007DB0098584504DD1098179910F80B00C0
:102DB00001E0179930205246904701980BF1010B22
:102DC000401E05F10105019004D12E2052461799AD
:102DD00090476D1CB9F10001A9F10109DEDC05E0A5
:102DE00017F8010B5246179990476D1C0299481E1F
:102DF00002900029F4DC53462146179A03989EE678
:102E00002D0000002B000000200000002DE9F04103
:102E1000044600251E461746880404D405E03946BA
:102E20002020B0476D1C641EF9D52846BDE8F0810E
:102E30002DE9F041044600251E469046C80301D501
:102E4000302700E02027880404D505E041463846B5
:102E5000B0476D1C641EF9D52846BDE8F081FDF72A
:102E6000E7BD000013B54FF6FF7301226946024823
:102E7000FEF730FE00981CBD0C010020FDF7EEFEB1
:102E8000FFF792F8FEF7F6FEFEF7DEFEFEF79AFF7A
:102E9000FEF77CFFFEF7C0FFFEF738FF094C00226B
:102EA00001212046FDF7C6FE002202212046FDF743
:102EB000C1FE4FF47A740720FEF7CEFF2046FDF7DF
:102EC000B7FDF8E7000C014070B50C4E0C46054606
:102ED000012210213046FDF7ADFEA2B24FF6FF737E
:102EE00029460748FEF7F6FD00B100240022102114
:102EF0003046FDF79FFE204670BD000000080140EF
:102F00005401002070B5094DFF231A4605F580765F
:102F100006E000BF10F8014B54402A5D5A40335D73
:102F2000491E89B2F6D242EA032070BD5A2F00082A
:102F3000010202030405060708090A0B0C0D0E0F17
:102F4000101000000000000000000102030406074A
:102F50000809000000000102030400C1814001C013
:102F6000804101C0804100C1814001C0804100C159
:102F7000814000C1814001C0804101C0804100C149
:102F8000814000C1814001C0804100C1814001C039
:102F9000804101C0804100C1814001C0804100C129
:102FA000814000C1814001C0804100C1814001C019
:102FB000804101C0804100C1814000C1814001C009
:102FC000804101C0804100C1814001C0804100C1F9
:102FD000814000C1814001C0804101C0804100C1E9
:102FE000814000C1814001C0804100C1814001C0D9
:102FF000804101C0804100C1814000C1814001C0C9
:10300000804101C0804100C1814001C0804100C1B8
:10301000814000C1814001C0804100C1814001C0A8
:10302000804101C0804100C1814001C0804100C198
:10303000814000C1814001C0804101C0804100C188
:10304000814000C1814001C0804100C1814001C078
:10305000804101C0804100C1814000C0C101C30363
:1030600002C2C60607C705C5C404CC0C0DCD0FCFE0
:10307000CE0E0ACACB0BC90908C8D81819D91BDB50
:10308000DA1A1EDEDF1FDD1D1CDC14D4D515D717A0
:1030900016D6D21213D311D1D010F03031F133F350
:1030A000F23236F6F737F53534F43CFCFD3DFF3FA0
:1030B0003EFEFA3A3BFB39F9F83828E8E929EB2BD0
:1030C0002AEAEE2E2FEF2DEDEC2CE42425E527E760
:1030D000E62622E2E323E12120E0A06061A163A3D0
:1030E000A26266A6A767A56564A46CACAD6DAF6F60
:1030F0006EAEAA6A6BAB69A9A86878B8B979BB7BD0
:103100007ABABE7E7FBF7DBDBC7CB47475B577B71F
:10311000B67672B2B373B17170B05090915193534F
:10312000529296565797559594549C5C5D9D5F9F1F
:103130009E5E5A9A9B5B99595898884849894B8B4F
:103140008A4A4E8E8F4F8D4D4C8C448485458747DF
:103150004686824243834181804000007C310008E2
:1031600000000020C4000000B42500084032000820
:10317000C40000207C050000C425000800000000F9
:103180000100000010000000000000000024F40016
:10319000010000000000000000000000000000002E
:1031A000000000000000000000000000000000001F
:1031B000000000000000000000000000000000000F
:1031C00000000000000000000000000000000000FF
:1031D00000000000000000000000000000000000EF
:1031E00000000000000000000000000000000000DF
:1031F00000000000000000000000000000000000CF
:1032000000000000000000000000000000000000BE
:1032100000000000000000000000000000000000AE
:103220000000000000000000000000005F2E000809
:103230000000000000000000C92E0008000000008F
:04000005080000ED02
:00000001FF
